:040000006F10004835
:1000040000000000000000006F0080086F00005333
:1000140000000000000000000000000000000000DC
:1000240000000000000000000000000000000000CC
:100034006F004006000000006F00E00500000000B3
:100044006F0080056F0060056F0040056F0020059C
:100054006F0000056F00E0046F00C00400000000A2
:100064006F0060046F0040046F0020046F00000400
:100074006F00C0046F00C003000000006F00600345
:100084006F0040036F0020036F0000036F00E00265
:1000940001A001A001A001A001A001A001A001A054
:1000A40001A001A001A001A001A001A001A001A044
:1000B40001A001A001A001A001A001A0B717004068
:1000C400130700032388E702854723AEF1847300F6
:1000D40020304111054506C6970000E0E780A030B6
:1000E400970000E0E780E0B797F0FFDFE780A0E843
:1000F40097F0FFDFE780802797F0FFDFE780A03BE2
:10010400EF00700FD5BFB7170040130770052380A9
:10011400E704130780FA2380E7042396A7022380C9
:1001240007043717004083472705898BEDDF835782
:1001340007053717004083472705898BEDFF3717DD
:10014400004083472705898BEDDF0355070582802F
:100154004111814601468145114506C6012BB72749
:10016400004011472383E780B7F700E003A707D1D6
:100174006D9B23A8E7D003A707D15D9B23A8E7D0F5
:100184007300501001000100B2404101828041110E
:10019400814681450146114506C6C929B727004055
:1001A40011472383E780B717004003C7E70283C5DD
:1001B400E70483D7870391661377F70F93E5350038
:1001C40063E5D700719B13671700B7170040130648
:1001D40070052380C704930680FA2380D704238202
:1001E40007022380C7042380D7042387E7022387D9
:1001F400B7042380C7042380D70403C7B704136755
:100204000702A385E7042380070437F700E083256A
:1002140007D193E545002328B7D0832507D1DD997D
:100224002328B7D073005010010001002380C704B5
:100234002380D70403C7B7041377F70DA385E70416
:1002440023800704B24041018280411122C48146C7
:1002540081452A840146114506C60929B72700406D
:1002640011472383E780B717004003C7E70283C51C
:10027400E70483D7870391661377F70F93E5350077
:1002840063E5D700719B13671700B7170040130687
:1002940070052380C704930680FA2380D704238241
:1002A40007022380C7042380D7042387E702238718
:1002B400B7042380070437F700E0832507D193E5CB
:1002C40045002328B7D02380C7042380D70483C5DF
:1002D400F70093E50504A387B7002380C7042380B0
:1002E400D70483C5B70493E50502A385B704E57570
:1002F40091054D8C2380C70442042380D704418098
:1003040023908702832507D1DD992328B7D0730072
:100314005010010001002380C7042380D70403C7C1
:10032400B704130560041377F70DA385E70423804E
:1003340007042244B240410189A401114EC68146FA
:100344000146AA898145114506CE22CC26CA4AC84F
:10035400312EB727004011472383E780B7160040AA
:1003640083C7E60203C7E60483D68603116693F7C0
:10037400F70F1367370063E5C600F19B93E7170097
:10038400371400401309700523002405930480FAF0
:10039400230094042302040223002405230094046C
:1003A4002307F4022307E404230004041305500282
:1003B400A128B7F700E003A707D11367470023A8D4
:1003C400E7D023002405230094040347F4001367B3
:1003D4000704A307E40023002405256723009404ED
:1003E400B3E9E9002310340303A707D15D9B23A8D5
:1003F400E7D07300501001000100F2406244D2447F
:100404004249B24905618280B717004093067005DE
:100414002380D704130780FA2380E70403C6B704B4
:100424001376F60DA385C70423800704137605020B
:100434002DC603C6A700118A0DE22380D7042380AA
:10044400E70403C7A700136747002385E700930762
:10045400004B01000100FD17EDFFB71700409306A4
:1004640070052380D704130780FA2380E7047D896D
:100474002394A70001000100010001002380070468
:100484002380D7042380E704930610053727004010
:10049400A303D780238007048280137605046DDECE
:1004A40003C6A700418A0DE22380D7042380E70412
:1004B40003C7A700136707012385E7009307007D9F
:1004C40001000100FD17EDFFB7170040930670050A
:1004D4002380D704130780FA7D892380E7041365FA
:1004E40005042394A70001000100010001002380FA
:1004F40007042380D7042380E704930630053727B5
:10050400004079B74111814601468145114506C62F
:10051400B12AB7170040130770052380E7041307B7
:1005240080FA2380E70403C7670413671700238353
:10053400E70423800704B2404101828081460146DA
:10054400814511452522B717004093067005238085
:10055400D704130780FA2380E7047D562396C70245
:100564002380D7042380E70403C7670413671700B5
:100574002383E7042380070401A0BD473305F50264
:1005840001007D1575FD8280411122C426C206C674
:10059400AA84014463179400B24022449244410166
:1005A400828005041305803E4204C13F4180DDB7CB
:1005B4002303048015472303E48001002302A4805D
:1005C400828083076480E3CE07FE23030480828055
:1005D40083076480E3CE07FE03454480828083075B
:1005E4006480E3CE07FE2302A4808280411126C4E6
:1005F4004AC24EC006C61377F50BAD47AA892E89A9
:1006040095446306F70019456537653F8D444E856B
:100614004537FD59FD1463983401B240A244124990
:10062400824941018280135509011375F50F453F35
:100634002209CDB7011126CC06CEB70408005137E4
:100644001545BD37713769372AC6A53F32459377BB
:10065400150089EB136515001375F50FF240E2449C
:1006640005618280FD14E9FC0145CDBF397126DCAA
:100674004ADA4ED852D656D45AD25ED006DE62CE6C
:1006840066CCB7E700E07D5783AA070022C603AA19
:10069400470023A0E71823A2E718B7170040130761
:1006A40070052380E704130780FA2380E70483C7D7
:1006B4004704930B75FFB684E20793FBFB0F854653
:1006C400AA892E8B328937240040E187015763FAC7
:1006D40076016308D5008946130700026313D50029
:1006E4000157D98F93F7F70FB71C00402382FC04FE
:1006F40011472303E4801305F00F5D3D094CD13508
:1007040063697C11B70707003E9B3787070079555B
:10071400637EEB02B3079B00636AF702A947639900
:10072400F90689E48144713D26850DA0DA850945E1
:10073400753D05090345F9FFFD14050B4D3581C4CD
:100744009377FB0FFDF7FD3569FD7D55B717004025
:10075400130770052380E704130780FA2380E70456
:1007640003C74704418B2382E704F250B7E700E054
:1007740023A0571123A24711E25432445259C259BB
:10078400325AA25A125B825B724CE24C2161828023
:10079400A5476395F90685691309F00FB306990017
:1007A400B3742B01B6941349F9FFB3749900856BA4
:1007B40033796901416B9387F9FFB3F7270199E313
:1007C40063FC340193D94900C147E3E637FF99BF7D
:1007D4000569C1697D19D9B71305800D638869015D
:1007E400130500026384790113051008CA85FD3BD3
:1007F400913521DD4E99B3843441D9B7DA852D453D
:10080400F533CA94E30099F20509D933A30FA9FE7D
:10081400D5BF9387F9FF93F7F70F636CFC0803C701
:100824005C04B70708001377070219E3B7870700CA
:100834007955E37DFBF033079B00E3E9E7F0894753
:100844006390F9048980D549E38E04ECDA8509457F
:10085400713B11090327C9FF91472320E480030753
:100864006480E34E07FE23033481FD17EDFBFD1482
:10087400110B81C49377FB0FE9FF6D3B71F5F1B563
:100884008547E387F9F4DA852D458D339389F4FFA1
:10089400E38A04E8353B93F7390091EB832604801F
:1008A4000327090093074900E39FE6E63E89CE84C7
:1008B400F1BFB5476396F9001305900BD5399DB583
:1008C400B1471305B00AE38BF9FE9947639EF90219
:1008D400DA852D45213B81448D4BA149D539639659
:1008E4007401832704802320F9008504E39834FFEE
:1008F4008327048013172B01635507002312F90083
:1009040015B52322F90039BD9D476399F902814544
:100914001305B004E139BD44232009002322090052
:10092400FD597D3193F77400CA9703C70700FD147E
:10093400398D2380A700E39634FFEDB3A14763927A
:10094400F904CD398144630D0B008D479304C00332
:100954006308FB009304000563048B0193044004C3
:100964001375C507E30095DC194599319939054597
:1009740081312685AD3109459D316D39E31405DAA0
:10098400E9B391476399F9001305600615311539E8
:100994001305900925B7E38709D8F15469B309CD44
:1009A400B7170040130770052380E704130780FA84
:1009B4002380E7042396A702828019C1814799E91D
:1009C40082803387F500834607003307F5008507E7
:1009D4002300D700E397C7FEE5B719C1FD5781E9A6
:1009E4008280910503A7C5FF1105232EE5FE7D1620
:1009F400E319F6FEF5B7797122D417340000130415
:100A0400A4401C4006D626D24AD04ECE91C7829727
:100A14009737000023AA073E5C4089CB03D5018B9E
:100A2400BD3F5C40829703D5218B953F1C40639961
:100A340007189737000083C7B74F858B95C797373B
:100A44000000A387074E173700000347974E9147CE
:100A540063FCE7005D2B9737000083C7974DF917B8
:100A64008A07A2979C4382979737000083C7075150
:100A7400918B89C7972001E0E780A0AC1C4491C307
:100A840082979387C18A98431736000003469635A8
:100A94003E89973400009384E4349737000083C779
:100AA400673493961700BA9683D6060063800610BF
:100AB4009737000083C7073363F2C70886073E975A
:100AC400835507002310070003D5018B2EC6239CF2
:100AD400018AF1359387418C9C4317350000034507
:100AE400653013172500BA979C43B2458297AA89AB
:100AF40003D5218B6D359737000083C7A72E139735
:100B040017008327090003D5818B1345F5FFBA9796
:100B140003D7070033753501598D2390A70083C788
:100B24000400850793F7F70F17370000230CF72A03
:100B3400173700000347172B63E6E70097370000D9
:100B44002382072A1C40ADEF9387C18B98433E84D0
:100B540025CB9737000083C7173E91CB973700000A
:100B640083C7373D89E7971001E0E780404E1C407A
:100B740082972A8431C59C48AA9717370000232BF3
:100B8400F7269387018C9C4385CF03D5018B013DC8
:100B94002285970000E0E780C0692254B250925445
:100BA4000259F24903D5218B4561D5BB850793F7DB
:100BB400F70F973600002387F622E3E0C7EECDBD9A
:100BC400B250225492540259F2494561828091678D
:100BD400B7C600409387373023A6F6200F100000D5
:100BE4009737000093870720884F9387819A9C4307
:100BF400316713073730F053B7071000FD17918F93
:100C040099833A0523A6E6205D8D82804111B717AA
:100C14000040985F3AC6945F3247E39CE6FE324553
:100C240041018280411106C6D5379736000083C63C
:100C3400E618858AB1C6930730333307F502B33714
:100C4400F5023983CA07D98F1737000013078719AC
:100C5400584B01456303F7023385E740636BF700A4
:100C640037653D0889C637856F0813050590198DCA
:100C74003E95173700002321F718B24041018280C6
:100C8400E5473307F502B337F5022583DE0765BF71
:100C94000327C50F8346B5009737000093870729BC
:100CA4009C4F58439386160295829043FD1693F603
:100CB400F60F10C3D04350C3904710C7D04750C756
:100CC400904B10CBD04B50CB904F10CFD04F50CF38
:100CD40091C61307070293870702C1BF8280834727
:100CE400E50193F7E70FF1EF2A870345F50171E971
:100CF400034607018346870009CA8345A70297373D
:100D0400000083C7B70B63E7F50093F70601C5CF6F
:100D1400814709CA834707150346F714C18AA20706
:100D2400D18F81CA83463715034747152207558F4C
:100D3400BA97D1CB173700001307C72A3847411198
:100D440022C406C67D548326070863F386003684CE
:100D5400184375FB173700000347470693168701AE
:100D6400E18663D906029387C7139583173700007A
:100D740003476705BA9763D006041D8C9387818C5B
:100D84009C4382973335A400B24022441345150096
:100D940041018280058B9387C71209CB8A07938709
:100DA400F7031305D007B3D7A702C9B78607FD0712
:100DB4001305D003CDBFE372F4FC3705C0A82A9411
:100DC4006DBF0145828082805D7122DE138481992A
:100DD4003AD218403ED04ACA1C5F86C696C499834C
:100DE4009AC29EC026DC2ADA2ED832D636D442CE17
:100DF40046CC72C876C67AC47EC2858B1389419963
:100E0400C1C31C5F973400009384441293F7F7F92D
:100E14001CDF9737000083C7671193F707048DC35E
:100E24009387818C9C4382979737000023A8A7104F
:100E340083C7040093F7F70B173700002308F70E56
:100E4400854717370000A305F70E83C7440093F7BF
:100E5400070481EF9387819A9C43D844B8D39307BE
:100E640000FC173700002305F70C8387640063D95F
:100E74000700832709009C4317370000230BF70A58
:100E840018401C5F8583858BC9CBF5571CDF010097
:100E94000100010001000100010001000100010046
:100EA4000100010001000100010001000100010036
:100EB4000100010001000100010001000100010026
:100EC4000100010001000100010001000100010016
:100ED4000100010001000100010001000100010006
:100EE40001000100010001000100010001000100F6
:100EF40001000100010001000100010001000100E6
:100F040001000100010001000100010001009387BC
:100F1400819A9C4313075004B8CB18401C5F9183FB
:100F2400858B89CFBD571CDF9387819A9C4323A867
:100F34000704854717370000230CF7FE83270900B1
:100F4400D8430583058B19C7D843759BD8C3D843A9
:100F5400799BD8C37254B640A64216438643E254E2
:100F64005255C2553256A256125782577248E24819
:100F74005249424EB24E224F924F6161730020306B
:100F84009387819A944317370000130727FABC52BA
:100F940089CF83472700858B89EB83473700858B6F
:100FA400FDD797370000238507F882809387419AFD
:100FB4009C4399CB944BD04B9842518F98C2944305
:100FC4009C479842D98F9CC29387819A9C4337C788
:100FD40000401306C003A8CB9306200397350000F6
:100FE4009385C5F483278720C18393F7F703636947
:100FF400F60083278720C18393F7F70363E6F6009F
:1010040083C74500858BF9DF82809387819A944357
:1010140017370000130787F1BC5289CB83470700B9
:10102400858B91CB97370000238407F09737000016
:10103400A38007F0828083471700858BF1DFDDB73B
:101044009387419A9C4399CB944BD04B9842518FB0
:1010540098C294439C479842D98F9CC29387819AA3
:10106400944337C70040C145A8CA654683278720F3
:10107400C18393F7F70363FBF50083278720C183BC
:1010840093F7F7036364F600BC52EDF38280138791
:1010940081991843AA87185F1583058B25EF0345AB
:1010A400150015051377C51F19C6B386E70083C657
:1010B40026002300D60095C59736000083C666E750
:1010C40093F606040945A1CAB386E70083C6360031
:1010D400054693F5F6066390C504E206E18663CC03
:1010E40006023385E7008347150003470500A2077E
:1010F40093F70770D98F13970701418393760740BD
:1011040099C6136707802390E19A01458280239052
:10111400F19AE5BF05458280011136C89386819A0C
:101124002ECC8C423AC63EC498452ACE32CA931776
:10113400070142C2C1831378172036853E8697364D
:1011440000009386A6DE630408041377072061CFAA
:1011540003C7260013671700173800002309E8DCCB
:1011640013070019B8D1130700F89735000023813D
:10117400E5DC138781990C4337080010D855719B1F
:1011840013672700D8D598413367070198C11377AF
:10119400261005C31376061045CA03C70600136755
:1011A4001700173600002303E6D81737000023136F
:1011B40007D883C6460093C7F7FFC207E206E18655
:1011C400C183184163D106029396170163D70608B9
:1011D40030538D4663E9C60085461736000023095F
:1011E400D6D43453FDFE973600009386E6BB83863F
:1011F400460163DD060093960701C18663D50606A2
:101204007053894663E4C6007453FDFE1447724567
:10121400E245F58F1CC75246C2463247A2471248E0
:1012240005617300203003C7160013671700973554
:101234000000A38DE5CE17370000230B07CE173728
:101244000000231907CEA1B703C7360013671700A0
:1012540017360000A30DE6CC89BF8546173600007B
:101264002308D6CC49B754471396060163510602A6
:10127400B7061000FD1674D397360000938686B621
:10128400944E850617360000232AD6B641B7A166C8
:10129400D58FADBF17370000130707CB8346B701BF
:1012A4009737000083C797CDB69793F7F70FFD469E
:1012B40063EAF6044C4B97360000A387F6C89737C9
:1012C400000083C777C805473317F7009736000037
:1012D400A386F6CA6D8F1DEF9736000083C656CAE3
:1012E400B3F6D70213050002814733D6F500058A09
:1012F40013F8F70F09CE6399E60097370000A3852A
:1013040007C5828081177DB705071377F70F850717
:10131400E39DA7FC82809387019B9843B757020003
:101324009387279F83260709139656006358060060
:10133400832607091396660063440600FD17FDF330
:10134400828051C9AA870145C9C98D07C207C183D3
:10135400F19BC207C18313074003636BF702138732
:1013640041A408431387C1A314436396A602173705
:101374000000130767A3185B014525C34111C20789
:1013840006C60545DD8D0297B240014541018280C4
:10139400138701A4F9B70357650005EF0357450008
:1013A4006369F702B306F74021466370D602104121
:1013B400938687001D8FAA96611790C22392E60038
:1013C4002393060014C12312F5002313B50021054D
:1013D4008280084159BF01458280828001CD938774
:1013E40041A403A807009387C1A38C430147C28784
:1013F40063E3B70082809443636FF50663EDA6064A
:1014040013868700E368C5FE03D5670021660506D9
:101414006317C50003C681950506238CC1942393E5
:10142400070063840703138601A41042630FF600C8
:101434000356670019EA83D7470014C3835647004D
:10144400B697A1072312F700BA879843E304B7FAC3
:10145400938601A49442E30FD7F883566700D9FA20
:1014640083D64700035647001843A106B296239239
:0C147400D70098C382803E87B6879DBFDA
:10148000974100209381012217710020130181B739
:1014900013054000972500209385C5361736002098
:1014A0001306067E63FAC5008322050023A05500BB
:1014B00011059105E3EAC5FE17E50100130505F1E5
:1014C000973500209385C57B1386818563FAC50017
:1014D0008322050023A0550011059105E3EAC5FE0E
:1014E00013858185976500209385C53A6377B5009C
:1014F000232005001105E36DB5FE9302800873A05B
:101500000230972200209382E22F93E21200739020
:10151000523097220000938262EE7390123473006F
:1015200020303D432A876373C3029377F700BDEFF2
:10153000ADE5937606FF3D8ABA960CC34CC30CC743
:101540004CC74107E36BD7FE11E28280B306C3406C
:101550008A069702000096966780A6002307B700C8
:10156000A306B7002306B700A305B7002305B700FD
:10157000A304B7002304B700A303B7002303B700F5
:10158000A302B7002302B700A301B7002301B700ED
:10159000A300B7002300B700828093F5F50F939660
:1015A0008500D58D93960501D58D61B7939627005B
:1015B0009702000096968682E78086FA9680C11789
:1015C0001D8F3E96E374C3F8A5B7411106C6EF2000
:1015D000806BBD4763F4A700EF20E06AEF20F012B4
:1015E000BD4763F4A700EF205012B24083D5618A53
:1015F00003D5418A41016F30E07B4111939625006C
:10160000AA852D4506C697300020E7806086B24047
:10161000014541018280411126C29394250022C4D4
:101620004AC02A843289A686AA850146254506C66F
:1016300097300020E780C083A6864A86A285294588
:1016400097300020E780C082B24022449244024991
:10165000014541018280011122CC06CE37140040A1
:1016600026CA4AC84EC652C483447405034AB40508
:101670008349840503499405EF20C05B8347A40593
:1016800093F4F40F137AFA0F93E71700230DF40481
:1016900093F9F90F1379F90FB717004003C7A7059E
:1016A000058B6DFF03D5C705A38D4705238C370533
:1016B000A38C2705A38B9704F2406244D24442498D
:1016C000B249224A0561828041119397050122C4E3
:1016D00006C6C1872E8463DD0700EF20D07319C1D1
:1016E000EF20D06C2165218DB240224441018280DF
:1016F00093F7150013C51500E5FB9397250163D0FB
:101700000702EF40E136D13537F60200130606E056
:10171000896503C58185EF3060410965E9B7939715
:1017200015010145E3D207FC17D501001305C5F9E2
:10173000EFB0B15413060064916503C58185EF30A5
:10174000E03E11654DB71D71494697D5010093855F
:1017500025F317E501001305658086CEA2CCEF3096
:10176000802401E917D501001305C5F2EFB0F1504F
:1017700001A037F700E0F9575CC7FD571CCB0564A3
:10178000B7E700E023A087109306701014C3B84396
:10179000C146B4C323A08718B8C3010001001306D3
:1017A000C00381454808EF30E01997570020938720
:1017B00027B73ECAA167938707E03ECE9707000090
:1017C0009387E7E3BEC497070000938707E5BEC68B
:1017D000B5472308F10297370000938787CF3EDA99
:1017E00097070000938767E73EDE9707000093871F
:1017F00007DEBEC0ED57A301F102B707322D938774
:1018000047103ED2B7F5070085472304F102814611
:1018100097070000938767107000E10519453EDCCB
:10182000231C810097200020E780806458088147AE
:10183000994670003E960346060085070507A30AF1
:10184000C700E398D7FED24791C703578101856748
:101850006373F70001A04808EF300069AA8501C949
:1018600017D50100130545E4EFB0F12C01A0F640B7
:10187000664425618280411117050000130505E5C6
:1018800006C622C4EF30C062138481852300A40001
:101890002528312A034504002244B24037F60200CD
:1018A000130606E0896541016F304028B7170040F4
:1018B000130770052380E704130780FA2380E704E9
:1018C000C8DB23AE01848280411106C6B7170040F1
:1018D000130770052380E704130780FA2380E704C9
:1018E00003C7F7021377A70FA387E70203C7F7021F
:1018F00013672700A387E702C9391305907E814744
:101900000147814605468545EF201004B240014558
:1019100041016F30900A011122CC2A84680006CE62
:1019200026CAEF20D037EF2070156367A400330577
:10193000A440F54763EBA7003245EF201038094576
:10194000F2406244D2440561828022858537324567
:10195000EF20B036373700408347574093F70704EE
:10196000A9C79384C1859C400D45F9FB6945972023
:101970000020E780C00D0545EF2090269C408DC3D8
:101980001305D402B707C0A863F7A700370540576F
:101990001305D5022295193F97200020E78080FB90
:1019A0000545EF20A02B014561BF010075B7B717B2
:1019B0000040130770052380E704130780FA238093
:1019C000E70403C7E700136787002387E70003C71F
:1019D000170313670702A388E7022380070437076A
:1019E0000010B7E700E023A0E7108280411122C475
:1019F00006C697660020938666B303C7660683C74C
:101A000056061384818622075D8F83C77606834539
:101A10000400C2075D8F83C78606E207D98F33852E
:101A2000A702EF003019B240230004002244410114
:101A30008280176700200347C7B59767002083C7D8
:101A400037B522075D8F9767002083C797B4C20719
:101A50005D8F9767002083C7E7B3E207D98F4111F5
:101A60001397C500138687FE06C6198E856663F335
:101A7000C6000566B307F502973500209385856893
:101A8000E1073385E700EF00906A09E9B24017D516
:101A90000100130525D841016FB0311EB24041014C
:101AA0008280176700200347C7AE9767002083C76F
:101AB00037AE22075D8F9767002083C797ADC207B7
:101AC0005D8F9767002083C7E7ACE207D98F374760
:101AD0004D49130717727971BA9722D426D24AD08A
:101AE0004ECE06D6AA843EC60144173900201309FB
:101AF0002961973900209389296183C70187636C25
:101B0000F4001304F00F2285B2502254925402596B
:101B1000F249456182809767002083C787A71765D0
:101B200000200345F5A6A207C98F176500200345CD
:101B300055A64205C98F176500200345A5A5620576
:101B40005D8D330585026146CA85EF00505B114605
:101B50006C004E85EFB0617019E52146A6854A8577
:101B6000EFB0A16F4DD105041374F40F79B701479D
:101B7000814705079376F70F63E8B6000345050034
:101B80001D8D133515008280B306E50083C606005F
:101B9000B69793F7F70FF1BF41119735002083D522
:101BA0002556173600200356C65517D501001305D4
:101BB000E5C706C622C4EFB001789735002083D56B
:101BC0002554856763EAB702173700201307475388
:101BD000814701440507639CF502228617D5010061
:101BE0001305C5C9EFB021751735002003556551A0
:101BF000018D1335150001A817D50100130585C502
:101C0000EFB0B1070145B240224441018280034553
:101C100037008507C2072295131405014180C1834F
:101C200055BF011122CC06CE26CA4AC84EC68345EE
:101C3000D5002A8417D50100130545A9EFB0A16F7F
:101C40008347D400130710026365F70213070002ED
:101C500063F9E7040D4717D50100130565B9638FD4
:101C6000E702F2406244D2444249B2490545056167
:101C7000828013070003638FE7001307F00AE392E3
:101C8000E7FE8345E40017D50100130525B7EFB043
:101C9000816AC1BF17D50100130545A4EFB0E17DEE
:101CA000C9B717D501001305E5A5EFB0017D83473E
:101CB000A40083459400176600200346768DA20792
:101CC000CD8F8345B400C205CD8F8345C400E205A6
:101CD000DD8D9767002083C7C78BA207D18F17665A
:101CE00000200346168B4206D18F1766002003465C
:101CF000668A62065D8E9387850163EFC70017D5FC
:101D000001001305E5A0EFB001634165014681457F
:101D10007D15EF10902EB1B7974400209384C43FF7
:101D20009C449309140013D7870083C7C400E207BB
:101D3000D98F8DE72146974500209385F53D4E8547
:101D4000EFB0A15101ED17D501001305659EEFB06D
:101D5000C172014681451305800C65BF4E859133E4
:101D60002382A1869307F00F6300F50601468145A3
:101D70001305700CEF10702883C5418617D501003C
:101D80001305459DEFB0215B4546A2851745002010
:101D900013058538EFB0C14E97470020A38207385E
:101DA00097470020238F073697470020A38B0736DD
:101DB00097470020238807368347E40003C5418600
:101DC0002384F186253171BD83C71187850793F779
:101DD000F70FA388F18603C7018763E4E700A388B0
:101DE000018683C5118717D50100130565992382E4
:101DF000B186EFB041548347E40019492384F1864A
:101E00007D191379F90F6319090017D5010013051E
:101E1000E598EFB0816635A89757002083C76777AC
:101E20009755002083C5D576A207CD8F9755002002
:101E300083C53576C205CD8F9755002083C585753E
:101E4000E205DD8D03C541863305B502EF00303470
:101E500045D983C5418617D5010013052595EFB0F7
:101E6000814D2146CE85174500201305B52997479A
:101E70000020A38D0728EFB0A1408347D400A2859E
:101E80004546174500201305252917470020230044
:101E9000F728EFB0E13E804419469305F00F9357C1
:101EA000840003C4C40017450020130555266204AE
:101EB0005D8C23A68186EFF0CFE60567A28763736A
:101EC000870085672393F1869306600E910733D7C9
:101ED000D702B3F7D7021377F70F85E72389E18697
:101EE000228683C5218717D501001305658EEFB0C3
:101EF00081444546974500209385C5201305600C15
:101F000009BD0507E1BF79714ECE06D622D426D28F
:101F10004AD0854963E0B90217D5010013054598F9
:101F2000EFB06141B250225492540259F249014536
:101F3000456182801384E5FF1374F40FAA84A2859F
:101F400017D50100130505983289EFB0C13E8D47C2
:101F50006384F40463EF9700E38634FD89472145E9
:101F6000638EF4024165014681457D15EF10F0084E
:101F700055BF93074006638AF402930750066389AE
:101F8000F4029547E390F4FE1306A006975500204F
:101F90009385C5591545D9BF13050019EF10701069
:101FA0000146814513053006D1B74A859D399DBF4D
:101FB000834519009749002083C959156383350566
:101FC0004E8617D501001305A591EFB0C136014625
:101FD00081451305400CEF10500217D50100130581
:101FE00025A0EFB08149814497D901009389C9A107
:101FF00063C8843A17D50100130545BCEFB0E1472B
:1020000015B7834529009304600E8567B384950254
:1020100013872700637A9700A68517D5010013055B
:10202000658EEFB0413165B71307A0026377B70043
:1020300017D501001305058EEDB71387E7F11306D9
:10204000600E6377970013864700058E4206418233
:102050009305900E4A8532C6193E63020522324628
:10206000173500201305C509930539002695EFB0F3
:10207000212183472900174900201309A908CE858B
:1020800013D737004A9793F677008547B397D70061
:102090008346B70093C7F7FF17D5010013050589DD
:1020A000F58FA305F7000144EFB0E12897D90100AF
:1020B0009389498983C72187636AF41C17D5010076
:1020C00013058588EFB0613B03C6218781478546AC
:1020D0006398C71E6381062C17D501001305058779
:1020E000EFB0A139553C974400209384E402630883
:1020F000052417D5010013052586EFB0013803C666
:1021000041869745002083C5750017D5010013054A
:10211000A585EFB041229745002083C535FF03C553
:102120004186EFF01F9183479900850717470020EC
:10213000A30EF7FC80449357840003C4C4006204D8
:102140005D8C83D761861D8C97470020A38A87FC0E
:1021500093578400174700202305F7FC9357040189
:1021600017470020A30FF7FA935784011747002061
:10217000230AF7FA6316041613050019EF106072AC
:10218000214697450020938535F917350020130522
:1021900025F7EFB0E10E175700200347873F975709
:1021A000002083C7F73E22075D8F9757002083C723
:1021B000573EC2075D8F9757002083C7A73DE207B0
:1021C000D98F37474D4913071772BA971737002031
:1021D000232CF7F2938701869C439745002083C503
:1021E00075F403C64186850723A0F18617370020C2
:1021F0002322F7F29387C1869C4317C5010013057C
:10220000A578173700202323F7F097370020238184
:10221000B7F0EFB041129757002083C787371755A3
:1022200000200345F536A207C98F17550020034546
:10223000553642055D8D9757002083C7A735E207C5
:10224000C98F03C541863385A702614697350020B3
:10225000938505EBEF00A06D17C50100130585758B
:10226000EFB0A121014681451305700CEF10E05835
:102270000545812203C54186EFF04FF765B117C5CB
:1022800001001305256BEFB0411F91B393747400E7
:1022900009C481E44E85EFB0010A135734004A9710
:1022A0008347B7001305E002B3D79740858B99E3C6
:1022B000130520050504EFB0010C1374F40FDDBB0A
:1022C00013D737004A970347B70093F57700335782
:1022D000B740058B11C38146850793F7F70FCDBB38
:1022E00019469305F00F17450020130555E2EFF04E
:1022F0004FA30567A2876373870085672393F186E1
:102300009306600E910733D7D702B3F7D70213773E
:10231000F70F85E72389E186228683C5218717C5C4
:1023200001001305E54AEFB001014546974500203D
:10233000938545DD1305600C15B90507E1BF194606
:102340009305F00F17450020130575DCEFF06F9D26
:1023500017C5010013054567EFB0211290440567CA
:102360009357860003C6C40062065D8EB28763730E
:10237000C70085672393F1869306600E910733D7D4
:10238000D702B3F7D7021377F70F81E72389E186E6
:1023900069B70507E5BF014681451305500CF9B63D
:1023A000B307990083C507004E858504EFA0B17877
:1023B00081B18280011197450020938525D7614620
:1023C00022CC23AA018606CE26CA4AC84EC652C4CB
:1023D00056C22A842D239745002083C525D693070E
:1023E0000002638DF50293071002638AF512894794
:1023F0006390F52417C5010013058563EFA0B17341
:102400006244F240D2444249B249224A924A17C534
:1024100001001305656305616FB0210617C5010052
:102420001305055FEFB061050545E12381446104B3
:1024300017490020130989CF9389418797570020B6
:1024400083C73710175700200347A70FA207D98F5C
:10245000175700200347170F9756002083C6860E94
:102460002207558FB387E7028D8763E3F40217577E
:1024700000200347870D854763EAE7046244F24082
:10248000D2444249B249224A924A05616F0020690A
:1024900013FAF40F63180A0013060010CA853305F7
:1024A0009400B1294A9A9757002083C7170A034519
:1024B0000A0089C71345F5FF1375F50FF12B83A7A4
:1024C00009008504850723AAF1868DBF0545F52BF4
:1024D00001449757002083C7D706175700200347AA
:1024E0004706A207D98F175700200347B70597560D
:1024F000002083C626052207558FB387E7028D8704
:10250000E37EF4F617550020034545043335A0005B
:102510003305A0401375F50F412305045DBF17C5B2
:1025200001001305E54FEFA051750545D921814400
:102530009309840117490020130949BF138A418771
:102540009757002083C7F7FF17570020034767FFFF
:10255000A207D98F175700200347D7FE97560020B0
:1025600083C646FE2207558FB387E7028D8763E354
:10257000F40817570020034747FD8547E3F0E7F0CD
:102580000545A1238144610417490020130909BAB4
:10259000175500200345F5FA9757002083C767FABF
:1025A00022055D8D9757002083C7D7F91757002064
:1025B000034747F9A207D98F3305F5020D85E3FFDD
:1025C000A4EA93F9F40F639809002295130600100A
:1025D000CA8526952D26CA999757002083C707F7E5
:1025E00003C5090089C71345F5FF1375F50F6D2164
:1025F000850479BF93FAF40F63980A00130600105C
:10260000CA8533859900E52CCA9A9757002083C75D
:10261000D7F303C50A0089C71345F5FF1375F50FF6
:10262000A52983270A008504850723AAF18609BF07
:102630006244F240D2444249B249224A924A17C502
:1026400001001305254105616FA0F14E37170040C9
:102650008327870C93E707012324F70C828011C19D
:10266000F5B7371700408327C70C93E707012326E8
:10267000F70C82803717004001C98327870C93E746
:1026800007082324F70C82808327C70C93E70708E9
:102690002326F70C8280856793870780B716004052
:1026A00019C503A7860CD98F23A4F60C828003A733
:1026B000C60CD98F23A6F60C8280B717004003A55D
:1026C000470C29810589828041118D45414506C607
:1026D000EF10B0468D4513050008EF1010468145F8
:1026E00013050040EF1070450565130505808D4505
:1026F000EF10B044A13FB24001454101A5BF0145E3
:10270000B9BF797122D426D24AD052CC56CA5AC8FF
:102710005EC606D64ECEAA8A81440144130B000839
:1027200037190040854B214AB3599B0033F53A01D4
:102730003335A0008D378327890C93E707082324BE
:10274000F90CA53F63167501336434011374F40F5B
:10275000014585040537E39944FD2285B250225492
:1027600092540259F249624AD24A424BB24B4561F5
:102770008280011106CE22CC26CA4AC84EC6A9378D
:10278000514597100020E7806060953F1305F009E0
:102790008D3F17C501001305A531EFA0D1390144C4
:1027A0009389818717C90100130989318D44130565
:1027B000F00F813FB3878900AA852380A700050415
:1027C0004A85EFA05137E31494FE17C501001305A5
:1027D000E53EEFA0914A6244F240D2444249B249F8
:1027E0000561ADB5411106C622C4113F1545113F23
:1027F0001305F00F3937058901CD37440F00130455
:1028000004247D1411C41305F00FE53D058975F905
:102810002244B24041011DBD411106C6CD351945C6
:10282000CD35B24041011DB5011132C606CE22CCD4
:1028300026CA2E84AA84E1350D45E13513D504411D
:102840001375F50F7D3D13D584401375F50F553D78
:1028500013F5F40F7D353246B304C40063179400BA
:102860006244F240D2440561D5B31305F00F513DE7
:102870002300A4000504DDB7411106C622C42A8442
:10288000613FB53D13050002AD3D1355044113757D
:10289000F50F853D135584401375F50F9D35137560
:1028A000F40F853565332244B240410125BF011143
:1028B00032C606CE22CC26CA2E84AA84B13F8135E8
:1028C0000945813513D504411375F50F1D3D13D509
:1028D00084401375F50F353513F5F40F1D35324669
:1028E000B304C4006318940095336244F240D244A8
:1028F0000561CDBD0345040005042135E5B741114F
:1029000022C426C22A84AE84AA8517C501001305F5
:10291000E51D4AC006C63289EFA0F1212285224476
:10292000B2404A86A685024992444101F5BD011193
:102930004AC84EC62A89AE89AA8517C50100130563
:10294000A51C26CA52C406CE22CCB284130A00109B
:10295000EFA0711E91E8F2406244D2444249B2496C
:10296000224A0545056182801374F90F33048A40B9
:102970004204418063F58400139404014180CE85B4
:102980004A8522862D372299A299818CE1B741117F
:1029900022C426C22E86AA842E84AA8517C50100C9
:1029A0001305051306C64AC0EFA0F118939744011A
:1029B000D18381C73E94FD77FD8C8567FD173E94DA
:1029C000FD777D8C2286A68517C501001305C50FEE
:1029D000EFA071162694056963998400B2402244E1
:1029E0009244024905454101828026857135CA9489
:1029F000E5B7411117C501001305C51506C622C468
:102A000026C2EFA091279757002083C747B31757D7
:102A100000200347B7B2A207D98F09476369F706B9
:102A200017240020130484298A07A2979C43A5C376
:102A3000154597100020E7806035B714004083A744
:102A4000C40A514593E7070223A6F40A9710002011
:102A5000E780C03383A7840A514593E7070223A484
:102A6000F40A97100020E78060329757002083C750
:102A700007AD17570020034777ACA207D98F8A0705
:102A8000A2979C430545829785472380F188B240F1
:102A900022449244410182809757002083C727AA8D
:102AA00017570020034797A9A207D98F0947636DDD
:102AB000F7008A07172700201307C71EBA9703A33A
:102AC00007006303030002838280411122C42A8429
:102AD00017C501001305050506C6EFA0111A975783
:102AE000002083C7C7A517570020034737A5A207B3
:102AF000D98F09476361F7028A0717270020130758
:102B0000E718BA9703A3070063070300228522444E
:102B1000B24041010283B24022444101828041110E
:102B200017C501001305C50122C406C6EFA0F114A4
:102B30009757002083C7A7A017570020034717A067
:102B4000A207D98F0944636DF4008A071727002074
:102B500013078714BA979C4381C782972380818883
:102B6000B24022444101828041118D45414506C653
:102B700022C426C2EF1000728D4513050002EF102B
:102B8000607181452165EF10E0708D451165EF1092
:102B900060708D450965EF10E06F8D450565EF109C
:102BA000606F371700408327870A85660545D58FF4
:102BB0002324F70A3D3D01449757002083C77798A7
:102BC000175700200347E797A207D98F6361F406E0
:102BD0000545E53D01449757002083C79796175751
:102BE000002003470796A207D98F636FF40622449B
:102BF000B2409244410125B7175500200345F59492
:102C00003335A0003305A0401375F50F71358504E9
:102C10009757002083C717931757002003478792C1
:102C2000A207D98F8D83E3E9F4FC050471B78144D1
:102C3000C5B717550020034565913335A00033050E
:102C4000A0401375F50F893D85049757002083C771
:102C5000778F175700200347E78EA207D98F8D8300
:102C6000E3E9F4FC050485BF8144C5B7411117C5EC
:102C70000100130565EF06C6EFA03100975700204D
:102C800083C7E78B175700200347578BA207D98FBD
:102C90000947636DF7008A071727002013074701CC
:102CA000BA979C4381C7829723800188B240410133
:102CB00082809757002083C78788175700200347D3
:102CC000F787A207D98F8946014563EBF6028A0789
:102CD000172700201307C7FABA979C4395C303C769
:102CE0000188631CD700411106C6829711C1BD3F00
:102CF000B24003C501884101828003C501888280FA
:102D000082804111054506C697100020E780000823
:102D1000371700408327470A93960701E3DC06FE36
:102D2000B240410182804111054506C6971000203E
:102D3000E780C005371700408327470A93960701AD
:102D4000E3CC06FEB240410182802147B717004024
:102D50008966916503A6C70A558E23A6C70A13166E
:102D6000850161866359060203A6870A4D8E23A456
:102D7000C70A03A6870A7D170605558E23A4C70A2E
:102D80001377F70F1375F50F71F703A7C70A558F60
:102D900023A6E70A828003A6C70A4D8E23A6C70A88
:102DA000C9BF411122C4371400400327C40A26C2F8
:102DB000856406C6458F2326E40A0327C40A1367E1
:102DC00007012326E40A51378327840AB240C58FBE
:102DD0002324F40A2244924441018280411122C4F6
:102DE000371400400327C40A26C2856406C6458FEF
:102DF0002326E40A0327840A136707012324E40A2D
:102E0000A9378327840AB240C58F2324F40A2244B9
:102E10009244410182809747002083C77772411115
:102E2000174700200347C771A20722C406C6D98FDF
:102E30002A841305E004A1CBAD37174500200345D4
:102E4000B5709747002083C7277022055D8D0D81DF
:102E50001375F50F61371305F004A13717450020EE
:102E60000345656EA53F174500200345D56DBD3769
:102E700017C501001305855022952244B240034531
:102E80000500410139BF313F174500200345B56BAF
:102E90009747002083C7276B22055D8D0D81137531
:102EA000F50F2D3F1305F004ED3D174500200345B8
:102EB000A5692D3717450020034515694DBF411100
:102EC00017C50100130545CB06C6EFA0015B4945B8
:102ED000C93D13054006813D4545E1350D45FD3DA4
:102EE0009747002083C7D7651747002003474765EA
:102EF000A207D98F13054004638907105D35174574
:102F00000020034575649747002083C7E7632205C7
:102F10005D8D0D811375F50FD135174500200345E3
:102F2000B5629747002083C7276222055D8D9747CA
:102F3000002083C73761174700200347A760A20717
:102F4000D98F3E956115A1473345F5021375F50FED
:102F5000713513055004B135174500200345A55EB2
:102F6000B53D174500200345155E8D3D17450020F2
:102F70000345755D9747002083C7E75C22055D8D9B
:102F80009747002083C7F75B174700200347675B1D
:102F9000A207D98F3E957D151375F50F813517451D
:102FA00000200345555A9747002083C7C75922057B
:102FB0005D8D174700200347C7589747002083C7F8
:102FC0005758A207D98F3E957D1521851375F50FAA
:102FD00031351305C003F133154509356145D1334A
:102FE00013050008E53B13052002653B1305100B94
:102FF000F533130500027533130540062D330145E3
:10300000193DB240014541018280613B17450020D6
:10301000034575539747002083C7E75222055D8D0E
:103020000D811375F50F5D3B174500200345B55124
:103030009747002083C7275122055D8D97470020C1
:1030400083C73750174700200347A74FA207D98FE0
:103050003E956115A1473345F5021375F50FBD3B4C
:10306000130550043D3B174500200345E54DBD3396
:10307000174500200345554D95331745002003455E
:10308000B54C9747002083C7274C22055D8D974795
:10309000002083C7374B174700200347A74AA207E2
:1030A000D98F3E957D151375F50F0D3B1745002003
:1030B000034595499747002083C7074922055D8D41
:1030C00017470020034707489747002083C79747C3
:1030D000CDBD29B3854763E3A70035BB828041118D
:1030E0001305200206C675391305F00CC539130502
:1030F00000024539B24029454101171300206700FD
:10310000E3C8B717004003A5470A3D8113451500E2
:1031100005898280411117C50100130565A706C600
:10312000EFA0A1354145EFF0DFC7B24005454101B1
:1031300075B16FF0BFCA17470020034707418547A5
:103140006305F70063ECA7002A8797C70100938700
:103150002723BA9703C507006FF0BFC482804111CF
:1031600017C50100130545A406C6EFA0013111459E
:10317000EFF03FC313054006EFF0BFB80145EFF095
:103180005FC21305F00CEFF07FC53D45EFF01FC5A2
:1031900001455537B24001454101828049456FF0F4
:1031A0005FC0B717004003A5470A3D8105898280AB
:1031B000411117C501001305A5A006C6EFA0E12B1C
:1031C0000945EFF01FBE1D45EFF0BFBDB24013052E
:1031D000500A41016FF09FC02D4525E703C505004A
:1031E0000947631CE504C841034715000345050072
:1031F0002207498F42070565418713057533631A16
:10320000A702411106C61305300F3E876374F5000F
:103210001307300FCC453285131607012390E600C3
:10322000418297100020E78080F9B24001454101BA
:103230008280239006002945828023900600054560
:103240008280828083C7850093F70702D9EB83CE03
:10325000050009432E88854763986E0203A3450045
:103260008347130003430300A207B3E76700C207C5
:103270000563C18713037333638A67000D681308FE
:103280002890638D0705A9473E858280AD476DFF75
:10329000411126C206C622C41307300FB684B547B3
:1032A0006368D7020325C8003284A2851306300F55
:1032B00097100020E780A0F093878188984381478A
:1032C00001CB184311C72686A28501450297814785
:1032D000B240224492443E854101828085476F502E
:1032E000D034A14755B741677917630CE502411106
:1032F00022C406C685472A84639AF50022852244A3
:10330000B2409385418841016F7040798947639647
:10331000F5008545EF90301E75D1B2402244410141
:1033200082808280411122C42A844165938541882C
:103330007D1506C6EF708076170500001305E5FAC7
:103340000588EF90D01205C02244B2409726002095
:103350009386869B41469145172500201305C59607
:1033600041016F70C068B240224401454101828032
:1033700009C523A4A18801458280454582801DE5B9
:103380009307300F61456395F5024111B2851735FA
:1033900000201305A5E91306300F06C6971000207C
:1033A000E780E0E1B2400145410182800945828029
:1033B0008280411122C42E849385418826C206C68C
:1033C000AA84EF505021058915C1972700209387C3
:1033D000A78F83D7A702A285B2402310F40022440E
:1033E00026859244014641016F60E07BB240224451
:1033F00092444945410182804111054506C6EF00CE
:10340000307E1305800497100020E78020808545DA
:103410007D55EF00306885457D55EF0010723717F8
:1034200000408327870A8D451305002093E7072076
:103430002324F70AEF001066EF10401217C50100B1
:103440001305C5B1EFA06103EFE0EFAFEFE0AFC24E
:10345000EF7081265D2297000020E780C047411170
:1034600085451305004006C6EF00D062056581451D
:1034700013050580EF00106281450565EF00F06BD4
:10348000B2408145096541016F00306B39E141115E
:1034900026C297440020938424FA268522C406C6B7
:1034A000328497100020E78080D183D70400937581
:1034B000F40F224413958700A183B24092445D8D9E
:1034C000420517460020130646F7418141016FE08F
:1034D0009FA3828083D7C1896390A702239FB1886D
:1034E0002390C18A2391D18A2E8617B50100130536
:1034F000A577BE856F90316417B501001305457837
:103500006F90B17741119397050122C406C626C278
:10351000C1872E8463D8070403C58180EF10A00FF4
:10352000AA8415C9034705009307000B6312F7022D
:10353000034745009307F007631CF7008355850098
:1035400017B501001305056CA387B180EF90B15E3C
:103550002685EF10A0052165218DB24022449244BA
:103560004101828093F7150091CF171600201306B2
:10357000667A9385418903C58180EF60113F1345C9
:103580001400E1BF93F725000145E1DB1306006459
:10359000894503C58180EF10605917B501001305F7
:1035A000A567EF90916D1345240045BF0357450073
:1035B000011106CE83D7C189631AF702C167F917D3
:1035C000894503C5818023AEF18823A0018AEF10CD
:1035D000C06C85471306F100854513055030A307DD
:1035E000F100EF607165F2400561828017B501005E
:1035F00013050569EF907168FDB76971B7F50700AC
:1036000050088146E1051945232611122324811211
:103610002322911223202113232E311197100020F1
:10362000E78000858347610117B701001307475CF6
:10363000171400201304C46E93D64700BD8BBA97AD
:1036400003C5070083475101BA9603C8060093D605
:103650004700BD8BBA9703C6070083474101BA965E
:1036600083C5060093D64700BD8BBA96BA9783C62A
:10367000060083C70700971400209384E46BA3021D
:10368000A400A383A400170500001305E5E72302A7
:1036900004012304D400238304012385D4002303DD
:1036A000B400A303C400A304F4002384B400A384DF
:1036B000C400A385F400EF10A07F93898180A14707
:1036C00005492380A9002319F1001306110193076E
:1036D0000019854513055030231EF100A308210170
:1036E000EF6091552686B14513057030EF60D154D7
:1036F0001386C1808D4513056030EF60F1531306CA
:103700002101894513051031EF6011537008894577
:1037100013052031EF6051522286D5450145EF4017
:10372000D0620564930504C80D45EF30A02A9305C7
:1037300004C81145EF30002A700891451305704008
:1037400023082101A308210102CEA30701002309B8
:103750000100EF5051261306F10085451305004086
:10376000EF5071251008854513051040EF50B12426
:1037700013062101854513052040EF50D123130680
:103780001101854513055040EF50F1227D55EF4062
:10379000B0697D55EF70602D7D55EFF0BFB8130611
:1037A000300F81456808EFD0DFD770089305300FE0
:1037B0000145230E2101EFF09FBCC1671387C1892A
:1037C000F9171CC32322070013854180EFF05FBA6D
:1037D0001385C188EF40513803C509008545EF10B6
:1037E00060228320C1120324811283244112032901
:1037F00001128329C11155618280797122D4130489
:10380000260026D24AD0AA842E8917B501001305B6
:10381000A541A28506D632C6EF90F1313246939784
:103820008400A180DD8CCA8517450020130565AF93
:1038300097470020239697AEEF909124131604012A
:1038400083C7F1804182F917634EF60017B5010076
:103850001305053FEF907142B25022549254025921
:103860004561828001478146ED4503D5C189231D0D
:10387000C100EF5000120356A10197450020938527
:1038800025AA2ACE97100020E78060932C0803D544
:10389000C189EFF01FB269D1ED452808EF5020270C
:1038A00065BFAA8517B501001305853A6F90B12849
:1038B000B707050D974600209386C6B69387271055
:1038C0009CC2B73713019387F77FDCC217470020EC
:1038D0001307C7C58347D7000346C7008545A2071E
:1038E000D18F2394F60085472395F60083C7060100
:1038F0002397A6004546850703C5818023960600C9
:103900002388F6006F4000567D15954763E5A714A0
:1039100017B701001307472C0A053A951C410111FE
:1039200022CC06CEBA972E84828717B501001305E4
:10393000A535EF9091341DA803C725009947631D55
:10394000F7002E85EFF09FC68345640017B5010090
:1039500013058534EF90311E17B501001305853529
:10396000EF90B1310565130585BB9937F24062448C
:103970000561828003C7250095476313F702C1677D
:1039800003D7C189F91783D5A5006300F7022E85F7
:10399000EF60515017B501001305C532EF90F12DBE
:1039A00017B501001305853469B70356E400239E5B
:1039B000B18817B5010013052532239FC1888357AD
:1039C00004012390F18A835724012391F18ADD4772
:1039D000A387F180EF903116E1B717B50100130509
:1039E000A53181BF83C52500914717B50100130597
:1039F0002532638BF5029947639EF5002285EFF02F
:103A0000FFBA8345640017B501001305E528EF9060
:103A10009112A9BF95476396F502834714009DC78D
:103A200017B5010013058530EF9031258547130642
:103A3000F100854513055030A307F100EF60D11F59
:103A400035B717B501001305E530D1B717B501003B
:103A50001305C52FF9BD8280814701451746002017
:103A6000130686B33D47B306F60083C606008507F6
:103A7000358DE39AE7FE8280411122C4AA852A840B
:103A800017B501001305853006C6EF90D10A05472A
:103A900063628714B717DCAB9387472397460020F0
:103AA00023ACF6AE9747002023AAE7AEC1471747DD
:103AB00000202327F7AE97470020239587AE693F64
:103AC000974700202381A7AED9473307F40297B761
:103AD00001009387E728BA9703D7070003D6A7000A
:103AE00097460020239AE6A417470020230787A4BF
:103AF00017470020A30387A4218017470020230F26
:103B000087A203D7270097460020239DC6A2974689
:103B10000020A385E6A22183974600202381E6A208
:103B200003C7470097460020A38BE6A003D7670092
:103B3000974600202396E6A003D7870097460020EB
:103B40002391E6A083D6C70097450020239DD59EEC
:103B500083D6E700974500202398D59E83C50701AB
:103B6000974600202383B69E83D6270183D747013B
:103B700017450020A30BD59C974600202388F69C70
:103B8000B307C702094593F6F50F8D8763F3A500C8
:103B90008946B387D702B70608009387772193F742
:103BA00007F063EDF602518F15CB17470020A301F4
:103BB000079E13D7870097460020238CE69C13D7D7
:103BC0000701E18397460020A385E69C1747002064
:103BD0002302F79CB240224441018280B7070800CB
:103BE000E9B74111B717DCAB22C4938777E91744D3
:103BF00000201304A4931CC0C5475CC09307A00613
:103C000006C61CC4953D8547A300F40293078002B5
:103C10002311F402E17785072313F402B1471CD482
:103C200093070030231204022316F402B240224408
:103C300041018280B717004003C777051377E70F6C
:103C4000A38BE704130700F8A38DE7043D47238CFB
:103C5000E70413075003A38CE7048280B7170040E2
:103C600003C7E704930670052380D7041377C70FB3
:103C70000D89930680FA2380D704498F2387E704B0
:103C8000238007048280B717004003D587005D7149
:103C90005ED64205418186C6A2C4A6C2CAC04EDE17
:103CA00052DC56DA5AD862D466D26AD06ECE937796
:103CB000050C13070008814B6388E71813070004FD
:103CC000639CE714B7240D8F7D8993840480B3D45B
:103CD000A4029167938707E8BE94A167938707D0F2
:103CE000B3D4F402EF80F17697B701009387870C85
:103CF0009043D443EF80B12AEF9021382A8B939CD4
:103D0000040103D9418A93DC0C016315090005699C
:103D100013090980B7170040130770052380E704D3
:103D2000130780FA2380E704371A00400547939D64
:103D30000401096C85662389E704D14A814E8145D7
:103D4000130D0A0413087005130680FA894893DDE1
:103D50000D01130C0C712943FD1623000D012300E6
:103D6000CD0023162A0323000D0083472A05898BE3
:103D7000EDDF83570A0583472A05898BEDFF8347CB
:103D80002A05898BEDDF83570A052392218BC20711
:103D9000C183338597419319050193D90941638400
:103DA00009163387B902635E070C850EC20E93DED7
:103DB0000E0163E8D80D63D9050A3305B0409315A9
:103DC0000501C185C204C18063D7350B09651305A0
:103DD00005713385A502B7170040130770052380CE
:103DE000E704130780FA2380E704239677032380F0
:103DF00007043345950242054181B6402644964466
:103E00000649F259625AD25A425BB25B225C925C1A
:103E1000025DF24D61618280B1E3B77489097D89E9
:103E200093840480B3C4A4029167938707E8BE9487
:103E3000A167938707D0B3C4F402EF80916197B76D
:103E400001009387A7F76DB597B70100938707F631
:103E5000856403AB07009384843855B5130B0000C9
:103E6000954471BD3A89D5BDB387FC40939907014C
:103E700093D9094181BF0965130505713385A902ED
:103E80008DBF3385B74163E4FC003385FD403305C6
:103E900085033344B5036345830013150401A9BFAB
:103EA0004E8536C642C432C2EF90C110DA85EF802B
:103EB0005161EF90010A931E050193DE0E41B30795
:103EC000D941C207C183056E3E8712462248894800
:103ED0002943B24663E3C701368742074183631A29
:103EE000270113071900634430011307F9FF420744
:103EF0004183FD1A93FAFA0FCA8BCE85E3940AF632
:103F00002392E18A59BF0145CDBDB717004003D5C3
:103F100087005D7186C642054181A2C4A6C2CAC09F
:103F20004EDE52DC56DA5AD85ED662D466D26AD0F9
:103F30006ECE02C69377050C13070008638BE71457
:103F400013070004639FE710B7240D8F7D899384C6
:103F50000480B3D4A4029167938707E8BE94A16755
:103F6000938707D0B3D4F402EF80B14E97B7010026
:103F7000938747E49043D443EF807102EF90E10FC1
:103F80002A89939A040103DB618A93DA0A01631593
:103F90000B00056B130B0B80B71700401307700560
:103FA0002380E704130780FA2380E704939B04012E
:103FB00005478969056A2389E704D14D014D814C84
:103FC00093DB0B01938909717D1A5A8597000020B4
:103FD000E780A093330C5541420C135C0C412393B2
:103FE000618B63010C16B3079C0363D1070E050DAB
:103FF000420D135D0D01894763EAA70D63DB0C0ACF
:1040000033059041931C050193DC0C41C204C1802F
:1040100063D88C0B0965130505713385AC02B7179E
:104020000040130770052380E704130780FA2380FC
:10403000E70432472396E7022380070433459502BD
:1040400042054181B640264496440649F259625AD7
:10405000D25A425BB25B225C925C025DF24D6161BE
:104060008280B1E3B77489097D8993840480B3C4E5
:10407000A4029167938707E8BE94A167938707D04E
:10408000B3C4F402EF80F13C97B70100938707D3E4
:10409000D5B597B70100938767D1856403A9070059
:1040A00093848438F9BD130900009544D9BD3E8B33
:1040B00029BF3385AA40131C0501135C0C41B9B715
:1040C0000965130505713305AC028DBF63FEAA00B7
:1040D0003305754133053503A9473344750363C878
:1040E000870013150401B1BF3385AB40E5B7628586
:1040F000EF80516CCA85EF80D13CEF809165131D34
:104100000501135D0D413307AB41420741838565CE
:10411000BA876363B700D287C207C183639A670116
:1041200093071B00634480019307FBFFC207C18311
:10413000FD1D93FDFD0F5AC6E28CE39A0DF6239305
:10414000F18A45B70145FDBD41112A83014E930E09
:10415000407E130F0019930F400663EB6E0A93081D
:10416000001913034006B3781503854E0D4FA14F78
:10417000337365020D891335150063E5BE0C130812
:10418000F6FF794672984208135808013307C702B0
:1041900013D61700BE0732976146B3F6C602130660
:1041A0008070B386C6023697A166F58F42075D8F91
:1041B000B717004083C6F70293F60608A307D1009D
:1041C0000346F10083C6F70293F60608E394C6FEA1
:1041D0008346F10093F6F60FF1DE93067005238017
:1041E000D704930680FA2380D70423AA070383C643
:1041F000170393E60608A388D702D8DB03C7170383
:1042000013670704A388E702238007044101828023
:104210007D133368E3039308E016630E08003368E8
:10422000F3039308D016630808009378330093B81B
:1042300018009388D81633081E01131E0801135E58
:104240000E0121BF6393E50305486386080001481A
:10425000630303002A8871087298FD15131E080174
:10426000C205135E0E01C18109BF13F8150063F486
:10427000BF007908D5B713381800E5BF4111B7174B
:104280000040985F3AC6945F3247E39CE6FE3245B1
:1042900041018280914763EEB70217B7010013070F
:1042A00067B28A05BA959C41BA978287B7170040D2
:1042B00003A7470B1345F5FF698F23AAE70A03A756
:1042C000070B698F23A8E70A03A7070A798D23A0A4
:1042D000A70A8280B717004083A6470B1347F5FF54
:1042E000F98E23AAD70A83A6070B558D23A8A70A00
:1042F00083A6070A758F23A0E70A8280B7170040BC
:1043000003A7470B498F23AAE70A03A7070B134507
:10431000F5FF45BFB717004083A6470B1347F5FFCE
:10432000758F23AAE70A03A7070A598D4DB7B71758
:10433000004003A7470B498FEDB7914763EEB702E3
:1043400017B70100130747A98A05BA959C41BA9788
:104350008287B717004003A7470D1345F5FF698F04
:1043600023AAE70C03A7070D698F23A8E70C03A76F
:10437000070C798D23A0A70C8280B717004083A675
:10438000470D1347F5FFF98E23AAD70C83A6070D17
:10439000558D23A8A70C83A6070C758F23A0E70CC7
:1043A0008280B717004003A7470D498F23AAE70C67
:1043B00003A7070D1345F5FF45BFB717004083A6B8
:1043C000470D1347F5FF758F23AAE70C03A7070CCA
:1043D000598D4DB7B717004003A7470D498FEDB76B
:1043E00005E937170040930770052300F70493078A
:1043F00080FA2300F70483570702C207C18393F7AB
:10440000F79FC207C1832310F702230007048280AD
:104410000111B7F5070081463000B105194506CEF8
:1044200097000020E780C0A4A247139727016344A8
:104430000702B7170040130770052380E70413072E
:1044400080FA2380E70403D70702136707602390ED
:10445000E70223800704F24005618280B71700401D
:1044600003D58700420541819377050491EB93774B
:10447000F5013755E801130505803345F5028280C3
:104480009377050C130700046397E7009377F50112
:1044900037459C1CCDB72165130505D0828037E7D1
:1044A00000E01C435443A183E206D58F1CC1FD5795
:1044B0002320F7182322F718828013178500B7E707
:1044C00000E023A0E710618123A2A7108280B7F744
:1044D00000E0C8439C478280814737370040A146AF
:1044E00063C4C700328582800345B740E38EA6FED1
:1044F0003385F5000345050085072304A740CDB7A4
:10450000938701819C43173700201307A7383E95F6
:10451000636CE500174700201307C78E6366A7008A
:1045200023A8A1803E858280FD57EDBF411122C4A2
:1045300006C62A8425372947B307E502B2408D8392
:10454000B3D7870222449507B3D7E7023737004035
:10455000C207C1832316F740410182807165411172
:104560001305052006C6D937B7370040130770F882
:104570002381E7400D47A381E74013070004A38090
:10458000E74005472387E740B2404101828023ACE2
:1045900005FE1C4191E7010001000CC18280BA8731
:1045A00003A787FF6DFF23ACB7FE82801DC1834642
:1045B000E5FF1307F00F9147639EE600411106C621
:1045C00097000020E780C061B24081473E854101ED
:1045D000828095473E85828001E9014582800145C0
:1045E000B240224441018280411122C42A84210523
:1045F00042059305D004418106C697000020E7805C
:10460000805471DDFD57232005002312850023030C
:10461000F5002105F1B71387818A1C43411122C49B
:1046200026C24AC006C601440149BA8489E7A16589
:10463000AD250DC401A803C7E7FF6318A7021DC875
:10464000A165C9269840832784FF6317E40223A449
:10465000F18AFD57232C04FE230FF4FE2285B2407D
:104660002244924402494101828011E03E8983A79D
:1046700087FF6DBF3E84E5BF232CF9FED9BFA9C9D2
:10468000411122C406C62A849737002083C797F5B4
:104690002E856368F400193F0D45B2402244410164
:1046A000828083A785FF99E703C7E5FF9307F00F93
:1046B0006305F700E53D1545CDB7238F85FE1385CE
:1046C000818AF13522852244B240A16541011DAEA7
:1046D0001545828023A4018A82809387018C9C43A4
:1046E00099E33E85828003D727006316B70003C78E
:1046F0000700E308A7FEDC47E5B7411193970501E2
:104700004AC006C622C426C2C1872E8963DF0700BD
:10471000193719C1EFF09FE921653345A900B2406F
:1047200022449244024941018280AA860145E5D98A
:1047300001443D47B3578940858B95CB9387418B87
:104740008443BD4791E28147A2978E070545BE94F9
:1047500033158500131405019C40C84041808297A1
:1047600023A0040023A20400334524014DBF050407
:10477000E312E4FC0144CDBF973700209387C7E2E2
:104780009C53411122C406C61384418195C7829768
:1047900023AAA1800840B74703009387D73F33057A
:1047A000F502B7A72600938737ECB24022443E9526
:1047B00023AAA1804101828097370020938787E256
:1047C00018409C4BBA9723AAF180E9B79387C18A16
:1047D00090439736002083C6F6E0814713F7F70F22
:1047E0006360D70A173700200347B7F4914763E0A7
:1047F000E70A9737002083C767F8918BC9EB01114F
:10480000680006CE22CC26CAEFC0401BFD56630FBF
:10481000D50C32479737002083C737DA63F3E70CAC
:1048200017370020130707DC4047173700200347DE
:10483000E7D86305D406058B21CF51473304E40242
:1048400063F1870A97000020E78080BCB24763735A
:10485000F400A28717370020034737D6998F3E957B
:1048600097370020938747D48387470163CD07029A
:10487000B707C0A86369F502B70740573E9525A062
:1048800085071397170032970357E7FF21DB8280D4
:10489000130790023304E40205805DB76207618765
:1048A000635707001D8D19E93705C0A801A8E37BF0
:1048B000F5FE3707C0A8B307F7403E9597370020AD
:1048C000938787CEDC53829709ED97370020938733
:1048D000E7E59C4F99C7EF00D154EF10412DEF0051
:1048E000B148F2406244D24405618280973700208B
:1048F000938747CFDC47E386A7FE173700201307CF
:10490000A7CA83464701BA84858A9DC65144338429
:1049100087029737002083C757CAE3F487FC9700C4
:104920000020E780E0AE9737002083C717C91D8CB1
:104930002295838744011DBF1304900233848702AC
:104940000580C1BF2A9609E582800505A30FB5FE43
:10495000E31DC5FED5BF81473307F50003070700F8
:1049600019E33E8582808507C5BF01112E8626CAC0
:10497000AA84131506019305F004418122CC06CECA
:1049800032C697000020E780001C2A8419C53246F1
:10499000A68597000020E78080822285F24062444D
:1049A000D2440561828081476314F6000545828008
:1049B0003307F5008507B386F5000347070083C674
:1049C000F6FFE383E6FE014582809307F6FFBE957E
:1049D0002A966313C5008280FD1583C7150005055F
:1049E000A30FF5FEFDB7814711E90145828033072A
:1049F000F50003470700E31AB7FE8507E319F6FE43
:104A0000054582809737002083C7D7BD637FF500B7
:104A10001387C18A9317150008433E9583570500F5
:104A2000DD8D2310B500014582800D458280FD5744
:104A3000011117370020232DF7BA9387018C22CC60
:104A400080434EC697390020938909B626CA4AC8C2
:104A500052C456C206CE5AC02A8981444E8A973A19
:104A60000020938A2AB8184481476374E900B30789
:104A7000274103A749021CC409CB03A7CA0063F658
:104A8000E700173700202325F7B6A9E78355240050
:104A900085ED5C44A9E823A0F18C032BC40022859A
:104AA00097000020E780C0135A8455FC83274A02F0
:104AB0008DCF6244F240D2444249B249224A924ADE
:104AC000024B05616FF09FD003450400253F5C4019
:104AD00081CB1CC483572400CDDFA2844044F1B7AE
:104AE0001C44C5DBC5BFDCC44DBFF2406244D244A8
:104AF0004249B249224A924A024B05618280973765
:104B0000002083C737AE6371F5021387C18A9317FC
:104B10001500084393C5F5FF3E9583570500FD8DAD
:104B20002310B500014582800D4582809737002013
:104B300083C757AB6364F50001458280411122C4ED
:104B400026C24AC006C62A842E89B284EFF0FFB876
:104B500001C504C505452DA0936504F0C205C181BA
:104B6000414597000020E78000FE0DE197370020C7
:104B7000938787A39C5B81C7A285114582970145D6
:104B8000B240224492440249410182809387018CC1
:104B90009C438DE323A0A18C85472326050004C5F3
:104BA0002311250123008500A300F5002322050021
:104BB00055B7BA87D84775FFC8C7F9BF45C539711A
:104BC0005AD0138B418B22DC26DA4AD84ED652D4E7
:104BD0005ECE66CA6AC86EC606DE56D262CC36891A
:104BE000328AAE89AA8401445A8DB94D854BF94C5D
:104BF00003270B00131C3400937AF40F62971C43B5
:104C0000A9EF13B5FA0013451500B3978B0063F6AF
:104C10005D01930714FFB397FB0093950701C181D2
:104C2000528629371DC983270D000145E29784C3A9
:104C300023A237016304090023005901F250625492
:104C4000D2544259B259225A925A025BF24B624CE8
:104C5000D24C424DB24D216182800504E31A94F991
:104C60002145E9BF09458280411122C426C24AC0BC
:104C700006C6AA842E893284EFF05FEBCA852685AA
:104C8000EFF0BFA509C940C10145B240224492449A
:104C90000249410182802145CDBF411122C426C273
:104CA0004AC006C6AA842E89EFF03FA32A8419C100
:104CB000231105009737002083C7C792639497009C
:104CC000239C218BCA852685EFF07FE3014511E007
:104CD0001945B240224492440249410182807547FD
:104CE000636BA7041387418B1443411126C29314AD
:104CF0003500A696944222C406C6AA873A8409457E
:104D000095C613B5F7003947134515006373F700CF
:104D1000C5178545B395F500C205C181BD3F1C404F
:104D20000145A69723A0070023A20700B240224412
:104D300092444101828009458280411106C6EFF00C
:104D4000DF9909C50845B240410182800145E5BFB0
:104D5000F54763EEA7049387418B9C4313173500F7
:104D6000BA979843894729C7011126CA06CE9334BA
:104D7000F50022CCB94793C4140063F3A70045158E
:104D800005443314A400420441802EC62685A28522
:104D90006D378947324611C5A2852685EFF01FD9A8
:104DA0008147F2406244D2443E8505618280894752
:104DB0003E8582802398A18A2399B18A82804111FD
:104DC00006C623AEA18A0295B2409737002023A5DC
:104DD000A782014541018280994763E9B7008A05AE
:104DE0009737002093874782BE9588C18280411102
:104DF00006C622C426C2EF503113714681451735CD
:104E0000002013056580EFF0FFB317240020130482
:104E1000647D1306400222858145EFF0BFB223A0D6
:104E2000018C23AE018A9727002083C7A77913D569
:104E300027008D8B3E958D473305F50299479305E5
:104E400010109384418C35051375F50F2301A400D0
:104E50003305F5021305050F97000020E780A0CE6B
:104E600023AAA18A834724001305050F88C08A0757
:104E70003E9523A6A18AEFF0FF85792E8347140083
:104E80009840170600001306868793962700BA9667
:104E900090C293862700850793F7F70FA300D400ED
:104EA000B24022448A07BA9790C39244410182805B
:104EB0009727002083C71773172700200347A7727F
:104EC00063F1E7021387418C184393861700172676
:104ED0000020A309D67093962700369708C33E8515
:104EE00082809307F00FE5BF1C416381071A417769
:104EF0007D8FB70600208947631BD71803574500ED
:104F000063070718411126C21946AA849305F00FBA
:104F1000590506C622C4EFF01FAD05478D47630152
:104F2000E51617240020130424681C4481CB58582C
:104F3000994763170714185C631407141306C0031A
:104F400081451725002013052566EFF0BF9F130646
:104F5000C003A685172500201305056597F0FF1FE0
:104F6000E780E0259727002083D7C76499E7930758
:104F7000001017270020231FF7629727002083C700
:104F8000876391E78547172700202306F762972755
:104F9000002083C7576291E7ED4717270020A30C35
:104FA000F7609727002083C7276191E79547172768
:104FB00000202303F7609727002083C7F75F91E75E
:104FC000854717270020A309F75E9727002083C78E
:104FD000F75E99E78347040117270020A300F75ED7
:104FE0009727002083C7675D91E7D14717270020E7
:104FF0002305F75C9727002083C7E75C95E7172711
:1050000000200347A75B93168701E1869307C00240
:1050100063C806009377170093B717009387D702EA
:10502000172700202301F75A9727002083C7F75836
:1050300095E7172700200347675893168701E186F5
:105040009307C00263C806009377170093B7170051
:105050009387D70217270020A301F75683C7D401EF
:1050600091E7894717270020A30EF7541C5491C7D6
:10507000829797270020239AA756EFF05FD78147A2
:10508000B240224492443E854101828089473E8558
:105090008280011122CC06CE2A842EC6EFF0CFEDFD
:1050A000B245F240818D33A5A50222956244137565
:1050B000F50F05618280011122CC06CE2A842EC60E
:1050C000EFF08FEBB245F240818D33A5A50222951A
:1050D00062444205418105618280011122CC06CEE5
:1050E0002A842EC6EFF04FE9B245F240818D33B5E8
:1050F000A50222956244056182809727002093874C
:10510000A74A985725C3411122C426C206C6BE84A9
:105110000297172700200357474D2A8441C7BA87B3
:105120006373A700AA87C207C183BA866373E400CA
:10513000A286C206C182958F51476355F706DC549B
:1051400091C382978547172700202305F75EEF005C
:10515000311297270020239A8748B2402244924474
:10516000410182809727002083C7C75C9DE797276E
:1051700000209387A75B83C79700850793F7F70FF6
:1051800017270020A308F75AA18B9DC7854717272B
:1051900000202311F75A6F00911397270020A38B4B
:1051A0000758D5BF9727002083C7C758DDD72244AB
:1051B000B24092444101C5B782809727002093876F
:1051C000A73ED857011122CC06CE3E8401C72AC67D
:1051D0000297324511CD23A4A18C17F5FF1F1305AB
:1051E000A524EFF0DFBDF2406244014505618280F5
:1051F0008307440163DD07009727002023A00740B1
:1052000097F7FF1F9387E71C23A4F18CF9B797F753
:10521000FF1F9387E71FCDBF011122CC1724002069
:1052200013048438084406CE26CA4AC801E9054555
:10523000F2406244D2444249056182805C58E5DB19
:10524000185C75D77000854582971844B247E30013
:10525000F7FE9305E004172500200355A5359700B8
:105260000020E780408E17270020232BA73861D12C
:1052700017260020035606349305F00FEFF08FEC4D
:105280008144172900201309E9359727002083C797
:1052900087320326C90163C1F402328597000020DA
:1052A000E780009401459727002023AB0734972718
:1052B000002023A90734ADBF9725002083D5852F73
:1052C000B38795020844185C898185043E9508C21D
:1052D000029765BF411122C4172400201304C42C77
:1052E0001C4426C206C64AC0972400209384842FFB
:1052F00091EBC84C35E9B240224492440249014541
:10530000410182801C5CF5D7DC4C99EF9305E004E9
:10531000172500200355052A97000020E780A0826A
:105320009727002023AEA72CC84C61D51726002054
:10533000035646289305F00FEFF0CFE00149972779
:10534000002083C74727D04CE355F9FA9725002062
:1053500083D54526338525031C44898105093E955F
:105360001C5C08C28297E1BF97000020E78040875D
:105370009727002023A607289727002023A4072883
:105380009DBF011156C2972A0020938AEA2183A764
:105390008A0022CC4AC84EC606CE26CA52C45AC07B
:1053A000AA892E8432896385072203A74A036307EB
:1053B00007147D476366A7149724002093848422F2
:1053C00003AAC40163170A0A9565938515E017259A
:1053D00000200355251E97F0FF1FE780C076972712
:1053E000002023AFA7202A86630A051083A74A035B
:1053F00003A58A009725002083D5C51B8981829744
:1054000083A78A0003AAC40117270020232CF71EB4
:105410008947639CF908C1476312F40E9725002061
:1054200083D54519938505FC9147B3C5F5028A05D7
:10543000D29503C705009307A005631DF70A83C72C
:1054400015006399370B4A852286910597F0FF1F57
:10545000E780E0D6DC4C5285639347150145F24066
:105460006244D2444249B249224A924A024B0561FF
:1054700082809850E38EE7F89565938525E017259F
:1054800000200355251397F0FF1FE780C06B2A8A81
:1054900035C52A8683A74A0303A58A0097250020DD
:1054A00083D5451189818297A5B78D47639DF90002
:1054B000C1476315F4049725002083D5A50F938574
:1054C00045FDF199B5B79147639AF9006318340324
:1054D0009725002083D5050EA115E5B7C147639F29
:1054E000F900A14763EC87009725002083D5850C40
:1054F000C115C1BFDC4C52856397470D294585B75F
:105500001307F006568B6361A70A130A05FE1947B5
:10551000334AEA02172700200357C709972A0020B9
:10552000938A4A0C330AEA023E9A83A70A026395D9
:10553000470183A4CA019DE49305E00417250020D8
:105540000355450797F0FF1FE780E05FAA845DD50C
:1055500083274B039725002083D5C5052A8689819B
:105560005285829791451307A0058981939725005D
:10557000A69783C607006393E60483C61700639C5F
:10558000360385058A052286A6954A8597F0FF1F72
:10559000E780E0C283A7CA01E38297EC268597F0F3
:1055A000FF1FE780E0635DBD1307E007E368A7F432
:1055B000130A05F985B783D5270045BF83A7CA011C
:1055C000E38E97F2268597F0FF1FE78060613DB775
:1055D0009727002093870701CC4F8DD191479306E1
:1055E000A0058983139727002E9703460700E3172A
:1055F000D6F003461700631C360185078A0722860A
:10560000BE954A8597F0FF1FE78060BB81BD835739
:105610002700C1BF97270020938707F9984739C70C
:105620009C5FA9C705476313E504411122C41724F1
:105630000020130424FB504C06C60DC608509725C5
:10564000002083D525F789818297484C97F0FF1F6A
:10565000E78000599727002023A407FA9727002006
:1056600023A207FAB24022444101828082800111C4
:1056700017270020130747F34EC68329870022CC43
:1056800026CA4AC806CE52C456C2AA842E8432897B
:10569000638A09201C5FBA8A99EB2945F24062446B
:1056A000D2444249B249224A924A056182805C5BF7
:1056B000EDD7FD4763E9A70E97290020938989F26A
:1056C00083A7C901B1CB03A58A0083A7090263950B
:1056D000A70689476393F408C147E310F4FC172534
:1056E0000020035525ED9147130505FC3345F502D0
:1056F0009317250003A5C9012286CA853E95930705
:10570000A0052300F500A3009500110597F0FF1FE9
:10571000E780E0AA014559B79305E004172500206A
:10572000035545E997F0FF1FE780E04197270020E8
:1057300023A8A7EC49F995B783A74A0303A6C90193
:105740009725002083D505E78981829783A78A0062
:10575000172700202328F7EAADBF8D47639EF4008A
:10576000C147E31CF4F2172500200355A5E41305F7
:1057700045FD9377C5FFBDBF9147639AF400E31ED3
:1057800094F0172500200355E5E22115DDB7C14748
:10579000E395F4F0A147E3E287F0172500200355D5
:1057A00065E14115F9B79307F00663EAA706930789
:1057B00005FE1947B3C7E70217270020035787DF05
:1057C000172A0020130A0AE2B387E702BE9983274B
:1057D000CA01A9CF83270A02639A37070325CA01A2
:1057E00091461308A005FD5593D72600C207C18333
:1057F000139727002A9703460700631D060783486F
:1058000017000356270063959806B306D64063CF6A
:10581000860485078A072286CA853E95C5BD9307FB
:10582000E007E3ECA7E6930705F979B79305E004F1
:1058300017250020035505D897F0FF1FE780A030FB
:105840009727002023AEA7DA51F581BD83A74A032D
:105850000326CA019725002083D5C5D589814E85A9
:1058600082979727002023AF37D98DBFA300B700B9
:10587000B2869DBFB385860017260020035686D3C7
:105880009105130606FCE3FAC5E01306340013760F
:10589000C60F1106B29623000701A300970023113B
:1058A000D70085BF972700209387C7D3D44FBE89E1
:1058B000A1C203A5C90191461308A005FD5593D7C0
:1058C0002600C207C183139727002A9703460700C3
:1058D000631606058348170003562700639898004F
:1058E000B306D640E3D786F2A300B700B286C1BFA5
:1058F0008357C700172500200345E5CB9305E00437
:105900003305F5024205418197F0FF1FE780A02390
:105910009727002023A6A7CE49FD41B317260020D4
:10592000035646C99725002083C5E5C8B385C5023F
:10593000338686001106E3E2C5D681BF0145828029
:10594000011106CE2EC6EF70402A01C9B245F240C1
:105950000355250005616FA06050F240494505617F
:105960008280A38A018E238A018E23AE018C23A01C
:10597000018E23A2018E23A4018E23AC018C23AAC5
:10598000018C972700209387E7C93707B40098C395
:105990003747A000D8C3370710009306070A94C7FB
:1059A000B7065000C106D4C7930607054107D8CBF8
:1059B0003707D007410798CF3707840398D337C7F5
:1059C0000700130707B8D8D3416794CB93060701A4
:1059D000130717F8D8D7417723AE070094D798DB81
:1059E0008280011126CAAA84214522CC06CE2E84AB
:1059F00032C636C43AC2EFE03FBE1DC9A2461247C6
:105A00003246930700FD2300F5009947A300950057
:105A10002301F5002303D500A303E5002312C500ED
:105A2000AA8522856244F240D24405616FE03FC5F9
:105A3000F2406244D2440561828023AEA18C828010
:105A400023A0A18E828023A2A18E828023A4A18E76
:105A50008280011122CC4AC806CE26CA2A89014476
:105A6000B30489006368B400F2406244D2444249FE
:105A7000056182802EC6EFE03FD093170501C183F8
:105A8000A183B2452380F4009307140093F7F70F26
:105A9000850463F9B700CA9709042380A70013742B
:105AA000F40F7DBF3E847DBFC167172500200355DD
:105AB00005BBFD176302F502411103C601989385EA
:105AC000C18E06C6EF60D074B240FD571727002084
:105AD0002317F7B841018280828009C92515137503
